{
  "contractName": "moneys",
  "abi": [
    {
      "inputs": [],
      "payable": false,
      "stateMutability": "nonpayable",
      "type": "constructor"
    },
    {
      "constant": false,
      "inputs": [
        {
          "name": "recipient",
          "type": "address"
        }
      ],
      "name": "transferETH",
      "outputs": [],
      "payable": true,
      "stateMutability": "payable",
      "type": "function"
    }
  ],
  "bytecode": "0x608060405234801561001057600080fd5b506000808190555060ed806100266000396000f300608060405260043610603f576000357c0100000000000000000000000000000000000000000000000000000000900463ffffffff168063d50f6bf0146044575b600080fd5b6076600480360381019080803573ffffffffffffffffffffffffffffffffffffffff1690602001909291905050506078565b005b8073ffffffffffffffffffffffffffffffffffffffff166108fc349081150290604051600060405180830381858888f1935050505015801560bd573d6000803e3d6000fd5b50505600a165627a7a72305820b3c13b7537f77bfa71cadd261f27ec9a286592f2ea396051d4508a735db0f29b0029",
  "source": "pragma solidity >= 0.4.24;\n\ncontract moneys {\n    uint256 balance;\n    constructor () public {\n        balance = 0;\n    }\n\n    function transferETH(address recipient) public payable{\n        recipient.transfer(msg.value);\n    }\n\n}",
  "sourcePath": "/home/masterg/Documents/5th Semester/Blockchain/Assignment1/contracts/BasicTransactions.sol",
  "compiler": {
    "name": "solc",
    "version": "0.4.24+commit.e67f0147.Emscripten.clang"
  },
  "schemaVersion": "3.0.15",
  "updatedAt": "2019-10-19T12:01:27.416Z",
  "devdoc": {
    "methods": {}
  },
  "userdoc": {
    "methods": {}
  }
}