{
  "contractName": "tic",
  "abi": [
    {
      "inputs": [],
      "payable": true,
      "stateMutability": "payable",
      "type": "constructor"
    },
    {
      "constant": true,
      "inputs": [],
      "name": "getBalance",
      "outputs": [
        {
          "name": "",
          "type": "uint256"
        }
      ],
      "payable": false,
      "stateMutability": "view",
      "type": "function"
    },
    {
      "constant": true,
      "inputs": [],
      "name": "printPlayers",
      "outputs": [
        {
          "name": "",
          "type": "address"
        },
        {
          "name": "",
          "type": "address"
        }
      ],
      "payable": false,
      "stateMutability": "view",
      "type": "function"
    },
    {
      "constant": true,
      "inputs": [],
      "name": "turn",
      "outputs": [
        {
          "name": "",
          "type": "address"
        }
      ],
      "payable": false,
      "stateMutability": "view",
      "type": "function"
    },
    {
      "constant": false,
      "inputs": [],
      "name": "joinGame",
      "outputs": [],
      "payable": true,
      "stateMutability": "payable",
      "type": "function"
    },
    {
      "constant": false,
      "inputs": [],
      "name": "startNewGame",
      "outputs": [],
      "payable": false,
      "stateMutability": "nonpayable",
      "type": "function"
    },
    {
      "constant": true,
      "inputs": [],
      "name": "printBoard",
      "outputs": [
        {
          "name": "",
          "type": "string"
        }
      ],
      "payable": false,
      "stateMutability": "view",
      "type": "function"
    },
    {
      "constant": true,
      "inputs": [
        {
          "name": "y",
          "type": "uint8"
        }
      ],
      "name": "printrow",
      "outputs": [
        {
          "name": "",
          "type": "string"
        }
      ],
      "payable": false,
      "stateMutability": "view",
      "type": "function"
    },
    {
      "constant": true,
      "inputs": [
        {
          "name": "x",
          "type": "uint8"
        },
        {
          "name": "y",
          "type": "uint8"
        }
      ],
      "name": "tostring",
      "outputs": [
        {
          "name": "",
          "type": "string"
        }
      ],
      "payable": false,
      "stateMutability": "view",
      "type": "function"
    },
    {
      "constant": false,
      "inputs": [
        {
          "name": "x",
          "type": "uint8"
        },
        {
          "name": "y",
          "type": "uint8"
        }
      ],
      "name": "Move",
      "outputs": [
        {
          "name": "",
          "type": "bool"
        },
        {
          "name": "",
          "type": "uint8"
        }
      ],
      "payable": false,
      "stateMutability": "nonpayable",
      "type": "function"
    },
    {
      "constant": true,
      "inputs": [
        {
          "name": "x",
          "type": "uint8"
        },
        {
          "name": "y",
          "type": "uint8"
        }
      ],
      "name": "InBounds",
      "outputs": [
        {
          "name": "",
          "type": "bool"
        }
      ],
      "payable": false,
      "stateMutability": "pure",
      "type": "function"
    },
    {
      "constant": true,
      "inputs": [],
      "name": "player",
      "outputs": [
        {
          "name": "",
          "type": "uint8"
        }
      ],
      "payable": false,
      "stateMutability": "view",
      "type": "function"
    },
    {
      "constant": true,
      "inputs": [],
      "name": "getCurrAdd",
      "outputs": [
        {
          "name": "",
          "type": "address"
        }
      ],
      "payable": false,
      "stateMutability": "view",
      "type": "function"
    },
    {
      "constant": false,
      "inputs": [],
      "name": "over",
      "outputs": [
        {
          "name": "",
          "type": "bool"
        }
      ],
      "payable": false,
      "stateMutability": "nonpayable",
      "type": "function"
    },
    {
      "constant": false,
      "inputs": [],
      "name": "declareWinner",
      "outputs": [],
      "payable": false,
      "stateMutability": "nonpayable",
      "type": "function"
    },
    {
      "constant": true,
      "inputs": [],
      "name": "Winner",
      "outputs": [
        {
          "name": "",
          "type": "uint8"
        }
      ],
      "payable": false,
      "stateMutability": "view",
      "type": "function"
    }
  ],
  "bytecode": "0x6080604052670de0b6b3a76400003414151561001a57600080fd5b33600060026101000a81548173ffffffffffffffffffffffffffffffffffffffff021916908373ffffffffffffffffffffffffffffffffffffffff16021790555060008060006101000a81548160ff021916908360ff16021790555060008060016101000a81548160ff021916908360ff160217905550611a30806100a06000396000f3006080604052600436106100db576000357c0100000000000000000000000000000000000000000000000000000000900463ffffffff16806312065fe0146100e057806314034bd21461010b578063354819cb1461012257806345742b08146101cb578063482d51e01461022057806348db5f8914610237578063750b5d171461027057806379134f7a146103265780637eaef50c1461037d5780638b299903146103ac5780639454986514610403578063a1d191cb14610493578063b2b98ed2146104f5578063b5ad19e71461052e578063d4f77b1c146105b8575b600080fd5b3480156100ec57600080fd5b506100f56105c2565b6040518082815260200191505060405180910390f35b34801561011757600080fd5b506101206105e1565b005b34801561012e57600080fd5b50610150600480360381019080803560ff16906020019092919050505061081b565b6040518080602001828103825283818151815260200191508051906020019080838360005b83811015610190578082015181840152602081019050610175565b50505050905090810190601f1680156101bd5780820380516001836020036101000a031916815260200191505b509250505060405180910390f35b3480156101d757600080fd5b50610206600480360381019080803560ff169060200190929190803560ff1690602001909291905050506109a9565b604051808215151515815260200191505060405180910390f35b34801561022c57600080fd5b506102356109e8565b005b34801561024357600080fd5b5061024c610a32565b6040518082600281111561025c57fe5b60ff16815260200191505060405180910390f35b34801561027c57600080fd5b506102ab600480360381019080803560ff169060200190929190803560ff169060200190929190505050610b03565b6040518080602001828103825283818151815260200191508051906020019080838360005b838110156102eb5780820151818401526020810190506102d0565b50505050905090810190601f1680156103185780820380516001836020036101000a031916815260200191505b509250505060405180910390f35b34801561033257600080fd5b5061033b610cc7565b604051808273ffffffffffffffffffffffffffffffffffffffff1673ffffffffffffffffffffffffffffffffffffffff16815260200191505060405180910390f35b34801561038957600080fd5b50610392610ccf565b604051808215151515815260200191505060405180910390f35b3480156103b857600080fd5b506103c1610d36565b604051808273ffffffffffffffffffffffffffffffffffffffff1673ffffffffffffffffffffffffffffffffffffffff16815260200191505060405180910390f35b34801561040f57600080fd5b50610418610ea3565b6040518080602001828103825283818151815260200191508051906020019080838360005b8381101561045857808201518184015260208101905061043d565b50505050905090810190601f1680156104855780820380516001836020036101000a031916815260200191505b509250505060405180910390f35b34801561049f57600080fd5b506104ce600480360381019080803560ff169060200190929190803560ff169060200190929190505050611054565b60405180831515151581526020018260ff1660ff1681526020019250505060405180910390f35b34801561050157600080fd5b5061050a6111d2565b6040518082600281111561051a57fe5b60ff16815260200191505060405180910390f35b34801561053a57600080fd5b506105436118b9565b604051808373ffffffffffffffffffffffffffffffffffffffff1673ffffffffffffffffffffffffffffffffffffffff1681526020018273ffffffffffffffffffffffffffffffffffffffff1673ffffffffffffffffffffffffffffffffffffffff1681526020019250505060405180910390f35b6105c061190a565b005b60003073ffffffffffffffffffffffffffffffffffffffff1631905090565b600160028111156105ee57fe5b6105f66111d2565b600281111561060157fe5b141561067957600060029054906101000a900473ffffffffffffffffffffffffffffffffffffffff1673ffffffffffffffffffffffffffffffffffffffff166108fc671bc16d674ec800009081150290604051600060405180830381858888f19350505050158015610677573d6000803e3d6000fd5b505b60028081111561068557fe5b61068d6111d2565b600281111561069857fe5b141561071057600160009054906101000a900473ffffffffffffffffffffffffffffffffffffffff1673ffffffffffffffffffffffffffffffffffffffff166108fc671bc16d674ec800009081150290604051600060405180830381858888f1935050505015801561070e573d6000803e3d6000fd5b505b6000600281111561071d57fe5b6107256111d2565b600281111561073057fe5b141561081957600060029054906101000a900473ffffffffffffffffffffffffffffffffffffffff1673ffffffffffffffffffffffffffffffffffffffff166108fc670de0b6b3a76400009081150290604051600060405180830381858888f193505050501580156107a6573d6000803e3d6000fd5b50600160009054906101000a900473ffffffffffffffffffffffffffffffffffffffff1673ffffffffffffffffffffffffffffffffffffffff166108fc670de0b6b3a76400009081150290604051600060405180830381858888f19350505050158015610817573d6000803e3d6000fd5b505b565b6060610828600083610b03565b610833600184610b03565b61083e600285610b03565b6040516020018084805190602001908083835b6020831015156108765780518252602082019150602081019050602083039250610851565b6001836020036101000a038019825116818451168082178552505050505050905001807f7c0000000000000000000000000000000000000000000000000000000000000081525060010183805190602001908083835b6020831015156108f157805182526020820191506020810190506020830392506108cc565b6001836020036101000a038019825116818451168082178552505050505050905001807f7c0000000000000000000000000000000000000000000000000000000000000081525060010182805190602001908083835b60208310151561096c5780518252602082019150602081019050602083039250610947565b6001836020036101000a03801982511681845116808217855250505050505090500193505050506040516020818303038152906040529050919050565b6000808360ff16101580156109c1575060038360ff16105b80156109d1575060008260ff1610155b80156109e0575060038260ff16105b905092915050565b60008060016101000a81548160ff021916908360ff16021790555060016000808282829054906101000a900460ff160192506101000a81548160ff021916908360ff160217905550565b60008060029054906101000a900473ffffffffffffffffffffffffffffffffffffffff1673ffffffffffffffffffffffffffffffffffffffff16610a74610cc7565b73ffffffffffffffffffffffffffffffffffffffff161415610a995760019050610b00565b600160009054906101000a900473ffffffffffffffffffffffffffffffffffffffff1673ffffffffffffffffffffffffffffffffffffffff16610ada610cc7565b73ffffffffffffffffffffffffffffffffffffffff161415610aff5760029050610b00565b5b90565b606060016002811115610b1257fe5b60028460ff16600381101515610b2457fe5b018360ff16600381101515610b3557fe5b602091828204019190069054906101000a900460ff166002811115610b5657fe5b1415610b99576040805190810160405280600181526020017f58000000000000000000000000000000000000000000000000000000000000008152509050610cc1565b600280811115610ba557fe5b60028460ff16600381101515610bb757fe5b018360ff16600381101515610bc857fe5b602091828204019190069054906101000a900460ff166002811115610be957fe5b1415610c2c576040805190810160405280600181526020017f4f000000000000000000000000000000000000000000000000000000000000008152509050610cc1565b60006002811115610c3957fe5b60028460ff16600381101515610c4b57fe5b018360ff16600381101515610c5c57fe5b602091828204019190069054906101000a900460ff166002811115610c7d57fe5b1415610cc0576040805190810160405280600181526020017f20000000000000000000000000000000000000000000000000000000000000008152509050610cc1565b5b92915050565b600033905090565b60006009600060019054906101000a900460ff1660ff161180610d10575060006002811115610cfa57fe5b610d026111d2565b6002811115610d0d57fe5b14155b15610d2e57610d1d6105e1565b610d256109e8565b60019050610d33565b600090505b90565b6000806000809054906101000a900460ff1660ff161480610d68575060016000809054906101000a900460ff1660ff16145b15610deb5760006002600060019054906101000a900460ff1660ff16811515610d8d57fe5b0660ff161415610dc157600060029054906101000a900473ffffffffffffffffffffffffffffffffffffffff169050610ea0565b600160009054906101000a900473ffffffffffffffffffffffffffffffffffffffff169050610ea0565b60026000809054906101000a900460ff1660ff161480610e1c575060036000809054906101000a900460ff1660ff16145b15610e9f5760006002600060019054906101000a900460ff1660ff16811515610e4157fe5b0660ff161415610e7557600160009054906101000a900473ffffffffffffffffffffffffffffffffffffffff169050610ea0565b600060029054906101000a900473ffffffffffffffffffffffffffffffffffffffff169050610ea0565b5b90565b6060610eaf600061081b565b610eb9600161081b565b610ec3600261081b565b60405160200180807f0a0000000000000000000000000000000000000000000000000000000000000081525060010184805190602001908083835b602083101515610f235780518252602082019150602081019050602083039250610efe565b6001836020036101000a038019825116818451168082178552505050505050905001807f0a0000000000000000000000000000000000000000000000000000000000000081525060010183805190602001908083835b602083101515610f9e5780518252602082019150602081019050602083039250610f79565b6001836020036101000a038019825116818451168082178552505050505050905001807f0a0000000000000000000000000000000000000000000000000000000000000081525060010182805190602001908083835b6020831015156110195780518252602082019150602081019050602083039250610ff4565b6001836020036101000a0380198251168184511680821785525050505050509050019350505050604051602081830303815290604052905090565b60008061106184846109a9565b151561106c57600080fd5b611074610ccf565b15151561108057600080fd5b3373ffffffffffffffffffffffffffffffffffffffff1661109f610d36565b73ffffffffffffffffffffffffffffffffffffffff161415156110c157600080fd5b600060028111156110ce57fe5b60028560ff166003811015156110e057fe5b018460ff166003811015156110f157fe5b602091828204019190069054906101000a900460ff16600281111561111257fe5b1415156111335760008060019054906101000a900460ff16915091506111cb565b61113b610a32565b60028560ff1660038110151561114d57fe5b018460ff1660038110151561115e57fe5b602091828204019190066101000a81548160ff0219169083600281111561118157fe5b02179055506001600060018282829054906101000a900460ff160192506101000a81548160ff021916908360ff1602179055506001600060019054906101000a900460ff16915091505b9250929050565b60008060008091505b60038260ff1610156113a25760028260ff166003811015156111f957fe5b01600160038110151561120857fe5b602091828204019190069054906101000a900460ff16600281111561122957fe5b60028360ff1660038110151561123b57fe5b01600060038110151561124a57fe5b602091828204019190069054906101000a900460ff16600281111561126b57fe5b1480156112f9575060028260ff1660038110151561128557fe5b01600260038110151561129457fe5b602091828204019190069054906101000a900460ff1660028111156112b557fe5b60028360ff166003811015156112c757fe5b0160016003811015156112d657fe5b602091828204019190069054906101000a900460ff1660028111156112f757fe5b145b801561135257506000600281111561130d57fe5b60028360ff1660038110151561131f57fe5b01600060038110151561132e57fe5b602091828204019190069054906101000a900460ff16600281111561134f57fe5b14155b156113955760028260ff1660038110151561136957fe5b01600060038110151561137857fe5b602091828204019190069054906101000a900460ff1692506118b4565b81806001019250506111db565b600090505b60038160ff16101561156d57600260016003811015156113c357fe5b018160ff166003811015156113d457fe5b602091828204019190069054906101000a900460ff1660028111156113f557fe5b6002600060038110151561140557fe5b018260ff1660038110151561141657fe5b602091828204019190069054906101000a900460ff16600281111561143757fe5b1480156114c4575060028060038110151561144e57fe5b018160ff1660038110151561145f57fe5b602091828204019190069054906101000a900460ff16600281111561148057fe5b6002600160038110151561149057fe5b018260ff166003811015156114a157fe5b602091828204019190069054906101000a900460ff1660028111156114c257fe5b145b801561151d5750600060028111156114d857fe5b600260006003811015156114e857fe5b018260ff166003811015156114f957fe5b602091828204019190069054906101000a900460ff16600281111561151a57fe5b14155b15611560576002600060038110151561153257fe5b018160ff1660038110151561154357fe5b602091828204019190069054906101000a900460ff1692506118b4565b80806001019150506113a7565b6002600160038110151561157d57fe5b01600160038110151561158c57fe5b602091828204019190069054906101000a900460ff1660028111156115ad57fe5b600260006003811015156115bd57fe5b0160006003811015156115cc57fe5b602091828204019190069054906101000a900460ff1660028111156115ed57fe5b148015611676575060028060038110151561160457fe5b01600260038110151561161357fe5b602091828204019190069054906101000a900460ff16600281111561163457fe5b6002600160038110151561164457fe5b01600160038110151561165357fe5b602091828204019190069054906101000a900460ff16600281111561167457fe5b145b80156116cd57506000600281111561168a57fe5b6002600060038110151561169a57fe5b0160006003811015156116a957fe5b602091828204019190069054906101000a900460ff1660028111156116ca57fe5b14155b1561170e57600260006003811015156116e257fe5b0160006003811015156116f157fe5b602091828204019190069054906101000a900460ff1692506118b4565b6002600160038110151561171e57fe5b01600160038110151561172d57fe5b602091828204019190069054906101000a900460ff16600281111561174e57fe5b6002600060038110151561175e57fe5b01600260038110151561176d57fe5b602091828204019190069054906101000a900460ff16600281111561178e57fe5b14801561181757506002806003811015156117a557fe5b0160006003811015156117b457fe5b602091828204019190069054906101000a900460ff1660028111156117d557fe5b600260016003811015156117e557fe5b0160016003811015156117f457fe5b602091828204019190069054906101000a900460ff16600281111561181557fe5b145b801561186e57506000600281111561182b57fe5b6002600060038110151561183b57fe5b01600260038110151561184a57fe5b602091828204019190069054906101000a900460ff16600281111561186b57fe5b14155b156118af576002600060038110151561188357fe5b01600260038110151561189257fe5b602091828204019190069054906101000a900460ff1692506118b4565b600092505b505090565b600080600060029054906101000a900473ffffffffffffffffffffffffffffffffffffffff16600160009054906101000a900473ffffffffffffffffffffffffffffffffffffffff16915091509091565b60008060029054906101000a900473ffffffffffffffffffffffffffffffffffffffff1673ffffffffffffffffffffffffffffffffffffffff16141580156119a057503373ffffffffffffffffffffffffffffffffffffffff16600060029054906101000a900473ffffffffffffffffffffffffffffffffffffffff1673ffffffffffffffffffffffffffffffffffffffff1614155b15156119ab57600080fd5b670de0b6b3a7640000341415156119c157600080fd5b33600160006101000a81548173ffffffffffffffffffffffffffffffffffffffff021916908373ffffffffffffffffffffffffffffffffffffffff1602179055505600a165627a7a72305820fd16b3c602f4d57e5544871445e97388aeaec57d05f2d8c822f928f526e42f8b0029",
  "source": "\npragma solidity >=0.4.24;\n\ncontract tic {\n    \n    uint8 games;\n    uint8 cm;\n    address p1;\n    address p2;\n\n\n    enum Board { Empty, X, O}\n    Board[3][3] board;\n    \n    constructor() public payable {\n        require(msg.value==1 ether);\n        p1 = msg.sender;\n        games=0;\n        cm=0;\n    }\n    \n    function getBalance() public view returns (uint256) {\n        return address(this).balance;\n    }\n    \n    function printPlayers() public view returns(address,address){\n        return(p1,p2);\n    }\n    \n    function turn() public view returns(address) {\n        if(games == 0 || games == 1)\n        {\n            if(cm %2 ==0 )\n            return p1;\n            else\n            return p2;\n        }\n        else if(games == 2 || games ==3)\n        {\n            if(cm%2==0)\n            return p2;\n            else\n            return p1;\n        }\n    }\n    \n    function joinGame() public payable{\n        require(p1!=0x0 && p1!= msg.sender);\n        require( msg.value == 1 ether);\n        p2 = msg.sender;\n        \n    }\n    \n    function startNewGame() public {\n        cm=0;\n        games+=1;\n    }\n    \n    //Printing the board\n    \n    function printBoard() public view returns(string ) {\n        \n        return string(abi.encodePacked(\"\\n\",printrow(0),\"\\n\",printrow(1),\"\\n\",printrow(2)));\n    }\n    \n    \n    function printrow(uint8 y) public view returns(string)  {\n        \n        return string(abi.encodePacked(tostring(0,y),\"|\",tostring(1,y),\"|\",tostring(2,y)));\n    }\n    \n    function tostring(uint8 x, uint8 y) public view returns(string)\n    {\n        //require(InBounds(x,y));\n        if(board[x][y]==Board.X)\n        {\n            return \"X\";\n        }\n        if(board[x][y]==Board.O)\n        {\n            return \"O\";\n        }\n        if(board[x][y]==Board.Empty)\n        {\n            return \" \";\n        }\n    }\n    \n    function Move(uint8 x, uint8 y) public returns(bool ,uint8 )\n    {\n       \n        //require(cm<=9);\n        require(InBounds(x,y));\n        require(!over());\n        require(turn()==msg.sender);\n        \n        if(board[x][y] != Board.Empty) {\n            return (false,cm);\n        }\n        else {\n            board[x][y] = player();\n            cm+=1;\n            return (true,cm);\n        }\n        \n        \n    }\n    \n    function InBounds(uint8 x, uint8 y) public pure returns(bool){\n     \n        return (x>=0 && x<3 && y>=0 && y<3);\n        \n        \n    }\n    \n    function player() public view returns(Board)\n    {\n        if(getCurrAdd()==p1)\n        {\n            return Board.X;\n        }\n        if(getCurrAdd()==p2)\n        {\n            return Board.O;\n        }\n    }\n    \n    function getCurrAdd() public view returns(address) {\n        return msg.sender;\n    }\n    \n    function over() public returns(bool) {\n        if(cm > 9 || Winner() != Board.Empty )\n        {\n            declareWinner();\n            startNewGame();\n            return true;\n        }\n            \n        return false;\n        \n    }\n    \n    function declareWinner() public {\n        if(Winner()==Board.X)\n            p1.transfer(2 ether);\n        if(Winner()==Board.O)\n            p2.transfer(2 ether);\n        if(Winner()==Board.Empty){\n            p1.transfer(1 ether);\n            p2.transfer(1 ether);\n        }\n    }\n    \n    function Winner() public view returns(Board) {\n        \n        for (uint8 i = 0; i < 3; i++) {\n            if (board[i][0] == board[i][1] && board[i][1] == board[i][2] && board[i][0] != Board.Empty) {\n                return board[i][0];\n            }\n        }\n        \n        for (uint8 j = 0; j < 3; j++) {\n            if (board[0][j] == board[1][j] && board[1][j] == board[2][j] && board[0][j] != Board.Empty) {\n                return board[0][j];\n            }\n        }\n        \n        if(board[0][0] == board[1][1] && board[1][1] == board[2][2] && board[0][0] != Board.Empty)\n        {\n            return board[0][0];\n        }\n        \n        if(board[0][2] == board[1][1] && board[1][1] == board[2][0] && board[0][2] != Board.Empty)\n        {\n            return board[0][2];\n        }\n        \n        return Board.Empty;\n    }\n   //games +=  1;\n}\n\n",
  "sourcePath": "/home/masterg/Documents/5th Semester/Blockchain/Assignment1/contracts/tictactoe.sol",
  "compiler": {
    "name": "solc",
    "version": "0.4.24+commit.e67f0147.Emscripten.clang"
  },
  "schemaVersion": "3.0.16",
  "updatedAt": "2019-09-15T00:17:27.577Z",
  "devdoc": {
    "methods": {}
  },
  "userdoc": {
    "methods": {}
  }
}